:020000040800F2
:10000000000002206DE70008BDE70008BDE700081A
:10001000BDE70008BDE70008BDE7000800000000DC
:100020000000000000000000000000006DDF00087C
:10003000BDE70008000000001DE00008250E0008D4
:10004000BDE70008BDE70008BDE70008BDE7000800
:10005000BDE70008BDE70008BDE70008BDE70008F0
:10006000BDE70008BDE700089D0E0008BDE70008D9
:10007000BDE70008BDE70008BDE70008BDE70008D0
:10008000BDE70008BDE70008190E0008BDE700083D
:10009000FD0E0008090F0008BDE70008890E0008E2
:1000A000A50E0008550E0008BDE70008BDE70008D2
:1000B000BDE70008490E0008BDE70008BDE70008DD
:1000C000BDE70008BDE70008BDE70008BDE7000880
:1000D000BDE70008BDE700083D0E0008BDE70008C9
:1000E0006D0E0008BDE70008BDE70008BDE7000889
:1000F000BDE70008BDE70008BDE70008BDE7000850
:10010000BDE70008BDE70008610E0008BDE7000874
:10011000BDE70008BDE70008BDE70008BDE700082F
:10012000F10E0008BDE70008BDE70008BDE70008C4
:10013000BDE700080000000000000000BDE7000867
:10014000BDE70008BDE70008BDE70008BDE70008FF
:10015000BDE70008BDE70008BDE70008BDE70008EF
:10016000BDE70008BDE70008BDE70008BDE70008DF
:10017000BDE70008BDE70008BDE70008000000007B
:1001800000000000BDE700080000000000000000C3
:10019000BDE700080000000000000000BDE7000807
:1001A000000000000000000000000000BDE70008A3
:1001B000BDE70008BDE70008BDE70008BDE700088F
:0401C000BDE700088F
:1001C400044B05481B1A062B02D9044B03B11847EC
:1001D400704700BF3B0400203804002000000000EA
:1001E40005490648091A891001EBD171491002D05A
:1001F400034B03B11847704738040020380400202B
:100204000000000010B5064C237843B9FFF7D8FF6F
:10021400044B13B10448AFF300800123237010BDD5
:1002240038040020000000008CE8000808B5084BE2
:100234001BB108490848AFF300800848036813B9A4
:10024400BDE80840CCE7064B002BF9D09847F7E708
:10025400000000003C0400208CE800083804002062
:1002640000000000F0B5094F094E0A4D83B06C46FA
:10027400398832682B88ADF80010ADF80220ADF84B
:10028400043094E8030001F08FF8F1E7D2920020E3
:1002940000000020FC9000202DE9F04F052083B0E1
:1002A400DFF868A1484D494CDFF864B1484F494E26
:1002B4000CF020FF4849BAF80020484B0A80484A0D
:1002C4001B8813800023A94601934FF0130809E00B
:1002D4000123C9F80030002319464FF0FF3230687B
:1002E4000BF09EFE2B68002BF2D001224FF400711C
:1002F4003C4804F0C3F9BBF80030E38000F08AFE08
:1003040000F548731AB2B2F5FA5FD8BF1846364BF7
:100314003649BAF800C0C8BFA0F5E15083FB0032EB
:10032400C317C3EBE2134FF4FA6202FB13032A4A26
:100334000860B2F900E02A49284AB1F9000012889D
:100344002B49121A2B480B601B010360A3802A4B14
:100354006280CEEB0C011960284B21801A601B4B84
:10036400B8F1000F12D008F1FF380BF0A5FA7A6843
:10037400B968FB6812881888098802F0DFFB00223C
:100384004FF40071174804F079F9A4E71C4A00936C
:1003940012681A8100F052FE1A4B0199404280B251
:1003A40041F287321880009B9142588108DC164B39
:1003B40000B243F821004B1C4FF012080193D4E71C
:1003C4004FF01208D1E700BF78040020A094002069
:1003D400CC94002054040020049200207C9200203D
:1003E400C842002000080240D34D621096920020BB
:1003F4009A92002000910020CC920020809200204C
:1004040000000020FC900020CC420020C09200207C
:10041400D292002030B585B0684602F061F90199A6
:10042400029D0E4B01F07F3005F07F3200F1013464
:1004340001F0803002F1013105F0803260404A4021
:100444005525002108241D601C7358609A60597357
:1004540099730FCB02F00EF905B030BD5091002016
:1004640038B5124A036893420DD0114A934200D022
:1004740038BD104B1A6812B100221A6038BD0E4AFA
:1004840012881A6038BD0D4D2946044651F8080BF0
:100494000BF072FDAB683BB1094B4FF080521A6010
:1004A400BFF34F8FBFF36F8F2368DEE70004004074
:1004B400000C004000000020D292002054040020D0
:1004C40004ED00E0B0F5005F15D0B0F5806F32D0D8
:1004D400102809D0202800D070471849184B002054
:1004E400012208601A6070471449154B012000224C
:1004F40008601A60704710B500F0E2F8114B002450
:100504001C6000F005F94FF4D2721146104602F057
:1005140015FB012204210C4804F0B0F800F00AF99C
:100524000A480268D36843F001032146D360BDE85A
:10053400104006F093B800F0C3BD00BF0491002042
:10054400C4420020780400200004024014930020D8
:10055400FEE700BF704700BF704700BF1049114B52
:10056400D1F8882042F4700210B4C1F888201A68C7
:100574000D4C002042F001021A6098601A6822F0C3
:10058400847222F480321A605C601A684FF000644E
:1005940022F480221A60D8608C605DF8044B7047A6
:1005A40000ED00E000380240103000241848836851
:1005B40003F00C03042B29D0082B0AD0154B144A42
:1005C400154892681549C2F30312825CD3400B604C
:1005D40070474368416813F4800F436818BF10489C
:1005E40001F03F020CBF0B49B0FBF2F1C3F38813D7
:1005F40008BFB1FBF2F101FB03F2054B5B68C3F3E7
:10060400014301335B00B2FBF3F3D8E7044BD6E7B5
:10061400003802400024F400A4E80008040000208C
:1006240000127A00F0B5204C204B2068204D00F5D4
:100634000010984288BF002085B020600BF014F8A9
:10064400286020680AF0F4FF1A4A2B681060C71764
:100654007A0742EAD002C0F3800040EA4200002157
:1006640080FAA1F0DD17144C6A0742EAD302C3F3FF
:100674008003206043EA420381FA83F30F4C194656
:1006840001AA236002F018F9039C029F019E6FF0F7
:1006940000400219C4198019520D610D400D02F079
:1006A4004DFA05B0F0BD00BF68040020FEFFFF7FD7
:1006B400B89200205C920020C8920020A8920020EA
:1006C40030B5114C87B000231A46012501A92046F4
:1006D4000393049305930195029507F059FF01A92B
:1006E4002046042207F054FF01A92046082207F0FF
:1006F4004FFF064AD3682B43D3602268D36843F084
:100704008003D36007B030BD08920020002004E0CD
:1007140010B5074C0021204606F02AFA2046042191
:1007240006F026FA20460821BDE8104006F020BA5B
:100734000892002010B50A4C012220464FF4806133
:1007440003F09CFF204601224FF4006103F096FF62
:10075400204601224FF48051BDE8104003F08EBFC3
:10076400000802402DE9F04188B01F4B1F4E0025C0
:1007740001951A6B42F002021A631A6B02F002022C
:100784000192019A02951A6C42F000721A641B6C71
:1007940003F0007302240293304603A94FF48073DC
:1007A4004FF001080927029A039304940694CDF8A4
:1007B4001480079703F0C4FD4FF4007303A9304677
:1007C40003930494CDF814800694079703F0B8FDBE
:1007D4002A460C21142003F08FFF142003F0C4FFD9
:1007E40008B0BDE8F08100BF0038024000040240B8
:1007F40030B58BB0294B2A48002401945A6C42F43A
:1008040080725A645A6C02F480720192019A0294C2
:100814001A6B42F004021A631A6B02F00402029289
:10082400029A03941A6B42F001021A631A6B02F0E3
:1008340001020392039A04941A6B42F480021A632D
:100844001B6B079403F480030325049305A9049BFD
:100854000595069503F074FD05A901231148059338
:100864000695079403F06CFD022305A90E48059331
:100874000695079403F064FD22460921382003F00D
:100884003BFF382003F070FF22460A21122003F0B8
:1008940033FF122003F068FF0BB030BD0038024074
:1008A40000080240000002400004024070B586B017
:1008B4000024114B00945A6C104842F001025A640F
:1008C4005B6C039403F0010300930222012301A94A
:1008D4004FF4BA5505930292009E0494019503F0D7
:1008E4002FFD22460721182003F006FF182003F0ED
:1008F4003BFF06B070BD00BF00380240000002405C
:1009040000B583B000220A4B0192196C41F0020138
:1009140019641B6C03F00203019308211D20019B41
:1009240003F0EAFE1D2003F01FFF03B05DF804FB93
:100934000038024000B583B000220A4B0192196CC2
:1009440041F0080119641B6C03F0080301930D21A5
:100954003220019B03F0D0FE322003F005FF03B0E8
:100964005DF804FB00380240F0B587B00024174B53
:1009740000941A6C164D174842F001021A641B6C5D
:10098400039403F00103009301A94FF400430227E9
:100994000126009A019304940297059603F0D0FC73
:1009A40001A9284608230193029703940494059609
:1009B40003F0C6FC4FF48062074B039401A9284658
:1009C4000192029303F0BCFC07B0F0BD0038024072
:1009D40000040240000002400000111070B586B00F
:1009E4000024104B00941A6C0F4842F400321A642D
:1009F4001B6C039403F4003300930722022301A920
:100A04000C25029304930592009E019503F098FC33
:100A140022460E21262003F06FFE262003F0A4FEBA
:100A240006B070BD0038024000000240F0B58BB043
:100A340000243E4B01941A6B3D4E3E4F42F004029B
:100A44001A631A6B02F004020192019A02941A6B5F
:100A540042F080021A631A6B02F080020292029A38
:100A640003941A6B42F001021A631A6B02F001023A
:100A74000392039A04941A6B42F002021A631B6BEA
:100A8400079403F0020301250493304605A94FF4AB
:100A94000073049A05930894069503F051FC05A984
:100AA40030464FF4005305930795069703F048FC2E
:100AB40005A930464FF4E05305930695079408942E
:100AC40003F03EFC05A904231B48059306950794EF
:100AD400089403F035FC05A91023184805930697DC
:100AE400079503F02DFC202305A9304605930697AE
:100AF400079503F025FC224606210A2003F0FCFD9D
:100B04000A2003F031FE22460521172003F0F4FDEC
:100B1400172003F029FE22460221282003F0ECFDD1
:100B2400282003F021FE0BB0F0BD00BF00380240C6
:100B340000080240000021100004024000000240AE
:100B44002DE9F0438DB0624CDFF88C91DFF88C8195
:100B54000025FFF76BFFFFF74BFE0695636C43F030
:100B640001036364636C099503F001030226012702
:100B7400069348464FF4BA5307A90793069A0A9571
:100B840008960B9703F0DCFB2A460721182003F094
:100B9400B3FD182003F0E8FD0595236C334323646B
:100BA400236C33402A46059308211D20059B03F03E
:100BB400A3FD1D2003F0D8FD0495236C3B4323645F
:100BC400236C08963B40049307A948464FF400431E
:100BD400049A079309950A950B9703F0B1FB07A9AB
:100BE400404608230793089609950A950B9703F046
:100BF400A7FB07A940464FF48062364B079208933F
:100C0400099503F09DFB0395236C43F008032364CB
:100C1400236C03F008032A4603930D213220039B1F
:100C240003F06AFD322003F09FFD0295236C43F428
:100C340000332364236C089603F40033029348467C
:100C4400072307A94FF00C090B93029A09950A96FA
:100C5400CDF81C9003F074FB2A460E21262003F0E5
:100C64004BFD262003F080FD0095236B3343236363
:100C7400236B33400093009B0195236C43F0007376
:100C84002364236C089603F00073019307A940467C
:100C94004FF480730924019A079309970A960B94D9
:100CA40003F04EFB4FF4007307A9404607930896E0
:100CB40009970A960B9403F043FB2A4649461420ED
:100CC40003F01AFD142003F04FFD0DB0BDE8F083CE
:100CD40000380240000011100000024000040240ED
:100CE40008B5194A0368934211D0184A93421ED09A
:100CF400174A934200D008BD02F50C321E20136C33
:100D040023F004031364BDE8084003F039BD02F581
:100D14009C321048536C23F0010353644FF4BA51CE
:100D240003F002FC1820BDE8084003F029BD02F5D9
:100D34000D320948136C23F0020313641021BDE83B
:100D4400084003F0F1BB00BF000001400004004074
:100D540000080040000002400004024008B5036897
:100D6400B3F1804F00D008BD074A0848136C23F044
:100D740001031364012103F0D7FB4FF4816104489C
:100D8400BDE8084003F0D0BB003802400000024038
:100D94000004024008B50268084B9A4200D008BD1E
:100DA400074A0848136C23F4003313640C2103F03E
:100DB400BBFB2620BDE8084003F0E2BC0044004031
:100DC400003802400000024008B502680C4B9A4209
:100DD40000D008BD0B4A0C48536C23F48073536451
:100DE4000E2103F0A1FB8221084803F09DFB084873
:100DF400032103F099FB1220BDE8084003F0C0BCB6
:100E04000020014000380240000802400000024077
:100E140000040240014809F089B900BF089100208C
:100E240008B50CF041FD012801D00DF025F9BDE80D
:100E3400084001F0D5BE00BF014804F06FBB00BFFD
:100E4400C4910020014807F047BE00BF149300205E
:100E5400014807F041BE00BF08920020014807F096
:100E64003BBE00BF50930020054B5B699B0403D439
:100E74004FF4806003F022BC4FF4005003F01EBC1A
:100E8400003C0140034B5B699B0600D47047202063
:100E940003F014BC003C0140102003F00FBC00BF61
:100EA40038B5104C23681A69120616D51A6800253D
:100EB40022F001021A6029465D62204605F07CFE9C
:100EC4000421204605F078FE0821204605F074FE32
:100ED4002A460421044803F0D1FB0248BDE8384007
:100EE40007F0FABD0892002000040240014805F012
:100EF400A1B800BF6491002001480AF0FDB900BF09
:100F04009893002001480AF0F7B900BF9893002095
:100F1400F0B597B00025214B0195196C204A41F09A
:100F240000711964196C01F0007101910199029525
:100F3400196C41F0805119641B6C03F080530293C7
:100F4400029B0395136823F4404343F480431360E6
:100F54001368109503F440430224039310210822DC
:100F64005A23012609A80D9111921293039F099403
:100F74000F941394149415940C9602F011FF0F22FD
:100F84004FF48053214604A80594069508950492CD
:100F9400079302F00DF917B0F0BD00BF003802400E
:100FA40000700040F0B5134C8BB04FF080434FF409
:100FB400FA510025082201262360E1600F2301A9CC
:100FC4002046032704920892059309936560A5605F
:100FD40025610295069501970396079606F01AFB7C
:100FE4002946204606F0E8FB2046042106F0E4FBEF
:100FF4000BB0F0BDD89200204FF08043044A5B6AE6
:101004001B03A2FB03239B09026842600360704731
:10101400D34D62104FF08043586A80B2704700BFCE
:101024004FF08043044A5B6A12689BB24FF4FA5053
:1010340000FB0230704700BF080000204FF08042E0
:1010440070B4546A19491A4B2403A3FB04340B6883
:101054004B60A409E31A9BB21DB2002D0C601DDB8A
:1010640043F6FC72954203DDA3F5FF437B3B1DB2BF
:101074004EF660240F4B104E04FB05F283FB020373
:101084001344D01786FB0242C0EBA333C0EB62408B
:10109400184480B2088170BC00B27047074A954278
:1010A400E6DA03F5FF437B331DB2E1E76C0400206D
:1010B400D34D6210030001803533676603C0FFFF20
:1010C40008B50D4B0D4A1868036813F0100F136828
:1010D4004FF0000114BF03F1FF33013341620648AE
:1010E400136006F069FB0421034806F065FB044B1A
:1010F4000122DA6008BD00BFD89200200800002059
:101104006C04002070B5334C334B23609AB0002537
:10111400402240F2FF732046A260E36065602561CF
:10112400656105F0CDF8204605F084FC06223023E5
:1011340002A920460292039307F058FB2022802341
:10114400694620468DE80C00052608F0F9FB4FF4AB
:1011540000634FF480614FF40052139314914FF4E1
:10116400804313A916962046702618921993159554
:10117400179508F009FC02232A460CA90C96204670
:1011840008260E930D951095119512950F9606F05D
:1011940075FE0CA92046042206F070FE32460CA906
:1011A400204606F06BFE01232A4607A92046089331
:1011B40009950A950B9507F0EBF907A92046042237
:1011C40007F0E6F9324607A9204607F0E1F91AB01C
:1011D40070BD00BF0892002000000140F0B5164C1D
:1011E400164B23608BB0002540F6FD732046E36068
:1011F40065602561A560656105F062F8204605F02B
:1012040019FC3022802301A9204601920293602711
:1012140008F096FB40F6CA06082320462A46022414
:1012240003A90795089509950397049605940693D1
:1012340006F024FE0BB0F0BD14930020000400401F
:101244000D4B0E4A1B680E4910B5A2FB03230D4C2F
:1012540000EB80005B0B216042000021013B204633
:10126400E26063602161A16005F02AF82046BDE8D0
:10127400104005F0EBB800BF040000205917B7D1A7
:10128400000C00405093002030B5ADF5017D0546BB
:101294000C4668464FF4007205490DF029F8EBB28C
:1012A4005C403DF8140080EA15200DF5017D30BD49
:1012B400B4E80008002301608280C3804372037293
:1012C400704700BFC28803468088904201D9187ACB
:1012D40040B15A7A022A5AD0032A0BD0002A53D09A
:1012E400FF20704770B4587A032856D8DFE800F01E
:1012F400402C180800223D20087010465A7270478E
:101304001868274C805C00F03F002044013290F8BC
:101314000002DA800022087010465A7270BC7047CE
:101324001D681F4EA85C541CA4B2DC802A5D80009A
:1013340000F03C0040EA92123244032492F8002266
:101344000A7000205C72E9E71D68154EA85C541C05
:10135400A4B2DC802A5D000100F0300040EA1212E1
:101364003244022492F800220A7000205C72D5E70D
:101374001C680B48A25C00EB9202012492F8002244
:101384000A7000205C72C9E70120187270473D2082
:101394000322087000205A727047FF20BEE700BF86
:1013A400B4E80008C0887047F0B583B08DE8030046
:1013B40044F2A6309DF80010574CFFF765FF9DF8E6
:1013C4000110FFF761FF9DF80210FFF75DFF9DF824
:1013D4000310FFF759FF9DF80410FFF755FF9DF820
:1013E4000510FFF751FF0022002360F30F02C2F340
:1013F40007258DF806201A4608203C21072A8DF877
:101404000750A0802173DFF818E1C4F800D01F460C
:10141400E380637223721E4618461D464FF0010195
:101424001DD8032B21D8DFE803F05A442E0202AB67
:101434001344013213F8083C03F03F03734496B29B
:1014440093F800523246012700236018072A01F15D
:1014540001010573C9B21D464FF00100E1D9022B09
:101464004FD0032B4AD0002B43D000284CD1002F5F
:1014740050D1631801313E22C9B228481A7300F0D2
:1014840071F803B0F0BD02AB561C1A44B6B212F8A0
:10149400083C02AA32449B0012F8082C03F03C03D7
:1014A40043EA92137344324693F80052012703230C
:1014B400CBE702AB561C1A44B6B212F8083C02AA97
:1014C40032441B0112F8082C03F0300343EA1213D0
:1014D4007344324693F8005201270223B5E702A869
:1014E4001044012310F8080C0EEB900090F8005201
:1014F400ABE768B957B901232372BAE700233D2546
:10150400A3E703233D25A0E76572B0E7E680F2E791
:101514006572EFE7E680ACE77C04002088040020D5
:10152400B4E8000810B50C4C0C4B23604FF4E131C7
:1015340000230C22204661606261A360E3602361A2
:10154400A361E36103F072FB204601220449BDE874
:10155400104003F0B5BD00BFC4910020004400401A
:10156400949300208AB24FF6FF730146014803F0BA
:1015740057BC00BFC491002000B583B002A94FF648
:10158400FF7341F8040D0122034803F049FC01985C
:1015940003B05DF804FB00BFC491002000B583B024
:1015A40002A94FF6FF7341F8040D0122034803F02A
:1015B40037FC002003B05DF804FB00BFC491002099
:1015C40001220249024803F07BBD00BF949300202E
:1015D400C4910020FDEEC07AF0B417EE902AF8EE24
:1015E400E77AB2EE047A20EE070A67EE877AA0B0B3
:1015F400F4EE407AF1EE10FA4FF000060FD0FDEE53
:10160400C07A20EE070A17EE902AF8EEE77A013640
:1016140067EE877AB4EE670AF1EE10FAEFD1174F4E
:10162400ADF10404002187FB0235D317C3EBA503F6
:1016340003EB8305A2EB450244F8042F1A1E01F1C3
:101644000101F0DC0DEB81030D4D2E2708E053F86A
:10165400044DB142645D047004BF821C477010469F
:1016640001394A1C00F10102F1D116B9302303708B
:1016740010460023037020B0F0BC704767666666AE
:10168400103A040830B5047883B064B105464FF6C7
:10169400FF73012201A90548019403F0C1FB15F869
:1016A400014F002CF3D103B030BD00BFC491002022
:1016B40030B5047883B064B105464FF6FF73012258
:1016C40001A90548019403F0ABFB15F8014F002C68
:1016D400F3D103B030BD00BFC49100200FB42DE995
:1016E400F047B8B040AB53F8045B00932A78002A63
:1016F40000F0E080DFF884829D4F9E4E252A40F062
:10170400CB806B78302B00F0DC8001354FF0010981
:10171400A3F13102082A00F2D2808DF860306B7890
:10172400A3F13002092A00F24B838DF86130AB78C3
:10173400A3F13002092A00F240838DF86230EB787D
:10174400A3F13002092A00F235838DF863302B7936
:10175400A3F13002092A00F22A838DF864306B79F0
:10176400A3F13002092A00F21F838DF86530AB79AA
:10177400A3F13002092A00F214838DF86630EB7964
:10178400A3F13002092A00F209838DF867302B7A1D
:10179400A3F13002092A00F2FE828DF868306B7AD8
:1017A400A3F13002092A00F2F3828DF869300A3578
:1017B4002B780A2238A90A44002402F8804C9DF8A8
:1017C4006010A1F13002D1B209290BD818A810F881
:1017D400011F04EB840402EB4404A1F13002D1B2F2
:1017E4000929F4D9253B532B00F2C782DFE813F013
:1017F400BA02C502C502C502C502C502C502C502B8
:10180400C502C502C502C502C502C502C502C5029C
:10181400C502C502C502C502C502C502C502C5028C
:10182400C502C502C502C502C502C502C502C5027C
:10183400C502C502C502C502C502C502C502C5026C
:10184400C502C502C502C502C502C502C502C5025C
:10185400C502C502C502C502C502C502C502C5024C
:10186400C502C502C502C502C502C50250025E0218
:10187400C502D501C502C502C502C502C502C5021D
:10188400C502C5028A012B01C502C5021401C502A5
:10189400B600C502C5026E0038A94FF6FF7341F8C1
:1018A400C42D3548012203F0BBFA6A780135002AB9
:1018B4007FF424AF38B0BDE8F04704B0704700248B
:1018C40090E7AB784FF00009023521E7009A0FAB9F
:1018D400111D009110689E4600E08E4600F00F0234
:1018E4007146B25C01F8012B0009F6D1CA1A5FEA0D
:1018F400520A8EF801000BD09A44184611F801CD13
:1019040090F800E000F801CB824581F800E0F5D1C1
:10191400944211D92AB938A921449DF83C0001F810
:10192400A40CB9F1000F0CBF30212021A21A03D05E
:1019340018460CF09FFD03469DF83C409946002C48
:10194400B3D04FF6FF7301220DA90B480D9403F099
:1019540067FA19F8014F002CF3D1A6E7009BDFF8D2
:1019640020C018681A1D0FAB00929E460BE000BF02
:10197400103A0408F8EA0008C49100206766666615
:10198400CDCCCCCC9646ACFB0021C90801EB81023E
:10199400A0EB42007246305C02F8010B08460029B5
:1019A400F0D1C3EB020C5FEA5C0A8EF8011009D097
:1019B4009A44194612F801ED087801F801EB5145F3
:1019C4001070F7D1644514D9BCF1000F05D138AAC1
:1019D40022449DF83C1002F8A41CB9F1000F0CBF7E
:1019E40030212021B4EB0C0203D018460CF042FD48
:1019F40003469DF83C409946002C3FF456AF4FF601
:101A0400FF7301220AA9B0480A9403F009FA19F8ED
:101A1400014F002CF3D148E7009BD3F8009099F8CC
:101A2400004004330093002C3FF43FAF4FF6FF73A4
:101A3400012208A9A448089403F0F2F919F8014F07
:101A4400002CF3D131E738A9302341F8CC3D0122F1
:101A54004FF6FF739C4803F0E3F938A9782341F863
:101A6400D03D01224FF6FF73974803F0D9F9009A4D
:101A74000FAB111D00911846116800E0104601F0EB
:101A84000F0E024616F80EE002F801EB0909F5D133
:101A9400C3EB020E5FEA5E0A417009D09A4419460C
:101AA40012F801CD087801F801CB8A451070F7D1FE
:101AB400744514D9BEF1000F05D138AA22449DF80B
:101AC4003C1002F8A41CB9F1000F0CBF30212021F6
:101AD400B4EB0E0203D018460CF0CCFC03469DF880
:101AE4003C409946002C3FF4E0AE4FF6FF730122D0
:101AF4000CA975480C9403F093F919F8014F002CC4
:101B0400F3D1D2E6009A0FAB111D0091184611686B
:101B140000E0104601F0070E024616F80EE002F847
:101B240001EBC908F5D1C3EB020E5FEA5E0A41700E
:101B340009D09A44194612F801CD087801F801CB6E
:101B44008A451070F7D1744514D9BEF1000F05D140
:101B540038AA22449DF83C1002F8A41CB9F1000FE5
:101B64000CBF30212021B4EB0E0203D018460CF038
:101B740081FC03469DF83C409946002C3FF495AE09
:101B84004FF6FF7301220BA94F480B9403F048F959
:101B940019F8014F002CF3D187E6009B073323F09B
:101BA400070303F10802D3E9000100920CF080FB63
:101BB40007EE900AF8EE677AF2EE046ABDEEE77A71
:101BC40067EEA67A17EE102AB8EEC77A4FF0000E29
:101BD40027EE267AB4EE677AF1EE10FA10D0BDEE55
:101BE400E77A67EEA67A17EE102AB8EEC77A0EF1F6
:101BF400010E27EE267AF4EE477AF1EE10FAEED1D2
:101C040017A8002188FB0234D317C3EBA40303EB0A
:101C14008304A2EB440240F8042F1A1E01F10101CF
:101C2400F0DC18AA0FAB02EB81004FF02E091A4624
:101C34000BE050F804CD71451CF807C082F800C0D1
:101C440004BF941C82F80190224601394C1C02F115
:101C54000104EED1BEF1000F02D1302111702246F1
:101C6400002111709DF83CE0BEF1000F3FF41DAE61
:101C74001C464FF6FF7301220EA91348CDF838E035
:101C840003F0CEF814F801EFBEF1000FF1D10CE629
:101C9400009B0D481A7838A91C1D41F8D82D4FF621
:101CA400FF730122009403F0BBF8FEE5009BD3F818
:101CB40000A00433BAF1000F0093C0F284800FAB8C
:101CC4001846DFF808E004E0C4910020CDCCCCCC69
:101CD4001046AEFB0A21C90801EB8102AAEB420AB5
:101CE400024616F80AC002F801CB8A460029EFD151
:101CF400C3EB020E5FEA5E0A417009D09A441946AA
:101D040012F801CD087801F801CB8A451070F7D19B
:101D1400744514D9BEF1000F05D138AA22449DF8A8
:101D24003C1002F8A41CB9F1000F0CBF3021202193
:101D3400B4EB0E0203D018460CF09CFB03469DF84E
:101D44003C409946002C3FF4B0AD4FF6FF7301229E
:101D540009A92348099403F063F819F8014F002CEA
:101D6400F3D1A2E538A9252341F8DC3D01224FF641
:101D7400FF731B4803F054F897E538A92B7841F812
:101D8400C83D01224FF6FF73154803F049F88CE56E
:101D9400093509220EE5083508220BE50735072227
:101DA40008E50635062205E50535052202E5043574
:101DB4000422FFE403350322FCE402350222F9E4A1
:101DC40001350122F6E438A92D2341F8D43D01223E
:101DD4004FF6FF73024803F023F8CAF1000A6EE7D6
:101DE400C49100200FB42DE9F047B8B040AB53F8CC
:101DF400045B00932A78002A00F0E080DFF88482F4
:101E04009D4F9E4E252A40F0CB806B78302B00F0FE
:101E1400DC8001354FF00109A3F13102082A00F2F8
:101E2400D2808DF860306B78A3F13002092A00F279
:101E34004B838DF86130AB78A3F13002092A00F2AC
:101E440040838DF86230EB78A3F13002092A00F266
:101E540035838DF863302B79A3F13002092A00F21F
:101E64002A838DF864306B79A3F13002092A00F2D9
:101E74001F838DF86530AB79A3F13002092A00F293
:101E840014838DF86630EB79A3F13002092A00F24D
:101E940009838DF867302B7AA3F13002092A00F206
:101EA400FE828DF868306B7AA3F13002092A00F2C1
:101EB400F3828DF869300A352B780A2238A90A444E
:101EC400002402F8804C9DF86010A1F13002D1B2D8
:101ED40009290BD818A810F8011F04EB840402EB9D
:101EE4004404A1F13002D1B20929F4D9253B532B82
:101EF40000F2C782DFE813F0BA02C502C502C502C8
:101F0400C502C502C502C502C502C502C502C50295
:101F1400C502C502C502C502C502C502C502C50285
:101F2400C502C502C502C502C502C502C502C50275
:101F3400C502C502C502C502C502C502C502C50265
:101F4400C502C502C502C502C502C502C502C50255
:101F5400C502C502C502C502C502C502C502C50245
:101F6400C502C502C502C502C502C502C502C50235
:101F7400C502C50250025E02C502D501C502C502F2
:101F8400C502C502C502C502C502C5028A012B01EC
:101F9400C502C5021401C502B600C502C5026E0021
:101FA40038A94FF6FF7341F8C42D3548012202F0D9
:101FB40037FF6A780135002A7FF424AF38B0BDE8D2
:101FC400F04704B07047002490E7AB784FF0000965
:101FD400023521E7009A0FAB111D009110689E464F
:101FE40000E08E4600F00F027146B25C01F8012B4E
:101FF4000009F6D1CA1A5FEA520A8EF801000BD022
:102004009A44184611F801CD90F800E000F801CB8D
:10201400824581F800E0F5D1944211D92AB938A952
:1020240021449DF83C0001F8A40CB9F1000F0CBF49
:1020340030212021A21A03D018460CF01BFA0346C3
:102044009DF83C409946002CB3D04FF6FF73012213
:102054000DA90B480D9402F0E3FE19F8014F002C72
:10206400F3D1A6E7009BDFF820C018681A1D0FAB58
:1020740000929E460BE000BF103A0408F8EA0008FC
:10208400C491002067666666CDCCCCCC9646ACFB8A
:102094000021C90801EB8102A0EB42007246305CCA
:1020A40002F8010B08460029F0D1C3EB020C5FEAE9
:1020B4005C0A8EF8011009D09A44194612F801ED11
:1020C400087801F801EB51451070F7D1644514D933
:1020D400BCF1000F05D138AA22449DF83C1002F847
:1020E400A41CB9F1000F0CBF30212021B4EB0C0269
:1020F40003D018460CF0BEF903469DF83C409946BF
:10210400002C3FF456AF4FF6FF7301220AA9B048E2
:102114000A9402F085FE19F8014F002CF3D148E728
:10212400009BD3F8009099F8004004330093002CEE
:102134003FF43FAF4FF6FF73012208A9A448089467
:1021440002F06EFE19F8014F002CF3D131E738A9E3
:10215400302341F8CC3D01224FF6FF739C4802F036
:102164005FFE38A9782341F8D03D01224FF6FF7372
:10217400974802F055FE009A0FAB111D00911846C6
:10218400116800E0104601F00F0E024616F80EE04A
:1021940002F801EB0909F5D1C3EB020E5FEA5E0A0E
:1021A400417009D09A44194612F801CD087801F813
:1021B40001CB8A451070F7D1744514D9BEF1000FD4
:1021C40005D138AA22449DF83C1002F8A41CB9F1A8
:1021D400000F0CBF30212021B4EB0E0203D01846AF
:1021E4000CF048F903469DF83C409946002C3FF416
:1021F400E0AE4FF6FF7301220CA975480C9402F06F
:102204000FFE19F8014F002CF3D1D2E6009A0FAB60
:10221400111D00911846116800E0104601F0070EE8
:10222400024616F80EE002F801EBC908F5D1C3EB3B
:10223400020E5FEA5E0A417009D09A44194612F808
:1022440001CD087801F801CB8A451070F7D17445A7
:1022540014D9BEF1000F05D138AA22449DF83C10D0
:1022640002F8A41CB9F1000F0CBF30212021B4EBFB
:102274000E0203D018460CF0FDF803469DF83C40CE
:102284009946002C3FF495AE4FF6FF7301220BA93B
:102294004F480B9402F0C4FD19F8014F002CF3D100
:1022A40087E6009B073323F0070303F10802D3E911
:1022B400000100920BF0FCFF07EE900AF8EE677A3B
:1022C400F2EE046ABDEEE77A67EEA67A17EE102AFC
:1022D400B8EEC77A4FF0000E27EE267AB4EE677A8E
:1022E400F1EE10FA10D0BDEEE77A67EEA67A17EE9B
:1022F400102AB8EEC77A0EF1010E27EE267AF4EE14
:10230400477AF1EE10FAEED117A8002188FB0234C7
:10231400D317C3EBA40303EB8304A2EB440240F8FA
:10232400042F1A1E01F10101F0DC18AA0FAB02EB15
:1023340081004FF02E091A460BE050F804CD714588
:102344001CF807C082F800C004BF941C82F80190F6
:10235400224601394C1C02F10104EED1BEF1000FFA
:1023640002D1302111702246002111709DF83CE009
:10237400BEF1000F3FF41DAE1C464FF6FF73012261
:102384000EA91348CDF838E002F04AFD14F801EF25
:10239400BEF1000FF1D10CE6009B0D481A7838A964
:1023A4001C1D41F8D82D4FF6FF730122009402F052
:1023B40037FDFEE5009BD3F800A00433BAF1000F0B
:1023C4000093C0F284800FAB1846DFF808E004E005
:1023D400C4910020CDCCCCCC1046AEFB0A21C90858
:1023E40001EB8102AAEB420A024616F80AC002F87F
:1023F40001CB8A460029EFD1C3EB020E5FEA5E0AE5
:10240400417009D09A44194612F801CD087801F8B0
:1024140001CB8A451070F7D1744514D9BEF1000F71
:1024240005D138AA22449DF83C1002F8A41CB9F145
:10243400000F0CBF30212021B4EB0E0203D018464C
:102444000CF018F803469DF83C409946002C3FF4E4
:10245400B0AD4FF6FF73012209A92348099402F095
:10246400DFFC19F8014F002CF3D1A2E538A925238C
:1024740041F8DC3D01224FF6FF731B4802F0D0FC0B
:1024840097E538A92B7841F8C83D01224FF6FF7330
:10249400154802F0C5FC8CE5093509220EE508351E
:1024A40008220BE50735072208E50635062205E56F
:1024B4000535052202E504350422FFE40335032231
:1024C400FCE402350222F9E401350122F6E438A9DC
:1024D4002D2341F8D43D01224FF6FF73024802F048
:1024E4009FFCCAF1000A6EE7C4910020F0B5274CA6
:1024F400274B236085B0002601274FF080524FF010
:10250400E06303252046E262A36227612763E56155
:102514006660A660A6612662E660666107F07EFAE0
:10252400092204236946204600920293019507F08C
:102534009FFE69462046174D8DE8C00007F098FEBF
:1025440069460B22022320468DE80C0007F090FE1A
:10255400114828604FF4806E4FF400514FF480729C
:102564004FF400334FF4006728466E60AE60EE60AF
:102574006E62C5F810E06F61A961EA612B6203F035
:10258400ADFAA563AC6305B0F0BD00BF08910020AF
:1025940000200140649100201064024030B4064BD6
:1025A400064C0749074A1D8858889B88258008805F
:1025B400138030BC704700BF48920020C0920020B6
:1025C4007C920020D2920020F8B50F4B0F4A1A607B
:1025D4004FF40011002218460D4F0E4E9A61052546
:1025E4004FF45024DA611A625A629A62DA629A608B
:1025F400DA601F635E635D601C61596108F038FB3B
:10260400054B064A1A60F8BD989300200064004008
:10261400D8930020F493002060910020190400084E
:10262400094B984210B50AD1084B052400204FF4F9
:1026340050214FF400125C60D86019615A6103485C
:1026440008F016FB012010BD20A10700989300207C
:102654000021014808F0A6BD98930020014B0022F8
:102664001A60704760910020014B1860704700BFEA
:102674006091002010B584B004AC04E90F009DF80B
:102684000D10009C9DF80C20B9B914489DF80E302B
:10269400006B04604160E3B9C360836002611AB1F6
:1026A400143001A90BF024FE0A210C4808F090FB19
:1026B400B0FA80F0400904B010BD08499DF80E300E
:1026C400086B002180E8120003B10223C3600423D5
:1026D400E3E702240B46C460DFE700BF98930020C1
:1026E4001C4B5B6B70B499681E685D68DC681A6982
:1026F4000273002908BF3546003118BF0121003498
:1027040018BF012412F0FF020560417384731DD0C9
:10271400197D0171012A19D0597D4171022A15D000
:10272400997D8171032A11D0D97DC171042A0DD0FC
:10273400197E0172052A09D0597E4172062A05D0F4
:10274400997E8172072A1CBFDB7EC372104670BC5F
:10275400704700BF9893002008B5052808D8DFE823
:1027640000F0131D150B0B03104B4FF040429A6001
:102774000E4808F07DFA08BD0C4B0C484FF080421F
:102784009A6008F075FA08BD012008BD074B074898
:102794004FF000429A6008F06BFA08BD034B0348FF
:1027A40000229A6008F064FA08BD00BF98930020E4
:1027B400F0B58BB04FEA104C4FEA114E8AB20125A6
:1027C40084B200260E27694608480593CDF800C058
:1027D4000194CDF808E003920695089507960496AF
:1027E400099708F0C9F928460BB0F0BD989300206A
:1027F40010B58AB0002301240E22694607480593C8
:10280400069300930193029303930493079408940B
:10281400099208F0B1F920460AB010BD989300203F
:10282400024B002283F83820704700BF98930020A1
:1028340008B5024808F0FAFEC0B208BD989300201B
:1028440008B5024808F0F2FEC0B208BD9893002013
:10285400184B1B6810B5044603B1984794F83830F8
:10286400122B1ED023680022222184F83810E26340
:102874005A6942F480725A615A6942F400725A6188
:102884005A6942F480625A615A6942F400625A6198
:102894005A6942F400425A615A6942F002025A618A
:1028A40010BD322384F8383023685A6942F002029A
:1028B4005A6110BD60910020F0B5C1F1000E74465C
:1028C4009D4BE51787B0AE0780FB03450F4646EAEC
:1028D4009E06CEF34001E30F6FF0004014464FF024
:1028E400804241EA460143EA45030490059283FA93
:1028F40081F283FAA1F1002FCCBF01250025002A23
:10290400C8BF023500294FEAE7714FEA817141EAF5
:102914009701C7F34002C8BF043542EA410283FA73
:1029240082FC83FAA2F615BB4FF0804323606360F8
:10293400A360261D04F1080705A9224620460123A9
:1029440008F0B4FE05A932463046012308F0AEFE75
:1029540005A93A460123384608F0A8FE94E80E007B
:10296400490052005B0084E80E0007B0F0BD012D61
:1029740030D0022D72D0032D00F09380042D4BD063
:10298400052D00F0B180062D40F0D180CCF100057A
:1029940003AA01A904A804F10807764201230296B8
:1029A400019508F083FE03A83A4602A9012308F022
:1029B4007DFEA3685B1001A9A3603846224601236B
:1029C400261D08F0C5FE02A932460123204608F060
:1029D400BFFEB1E703AA01A92B4604A80196261D50
:1029E400CDF808C008F062FE03A8324602A92B46BF
:1029F40008F05CFE63685B1001A9636030462B46F7
:102A0400224604F1080708F0A3FE02A92B463A4621
:102A1400204608F09DFE8FE703AA01A904A804F14B
:102A240008070123CDF804E0029608F03FFE03A84E
:102A34003A4602A9012308F039FEA368261D5B105B
:102A440001A9A36038463246012308F081FE02A999
:102A540030460123224608F07BFE6DE703AA01A954
:102A640004A80123CDF804C0CDF808E008F01EFE48
:102A740003A802A92246012308F018FE236827466A
:102A84005B1047F8083B01A93A4620460123261D5E
:102A940008F05EFE02A938463246012308F058FECB
:102AA4004AE703AA01A904A87642012301960297E2
:102AB40008F0FCFD03A802A92246012308F0F6FD54
:102AC400236826465B1046F8043B01A9324620469B
:102AD400012304F1080708F03BFE02A930463A46F8
:102AE400012308F035FE27E7CCF1000503AA01A96C
:102AF40004A8261D01230197029508F0D7FD03A819
:102B0400324602A9012308F0D1FD636804F10807E5
:102B14005B1001A9636030463A46012308F018FEB1
:102B240002A938460123224608F012FE04E7261DB6
:102B340004F1080700E700BFA1EBD96E024B1B6844
:102B440058639963DA63704708920020704700BFA6
:102B5400704700BF10B5094B4FF0FF3200241A62D2
:102B64001C625A625C621A611C615A615C619A61FE
:102B74009C61FFF7EDFF204610BD00BF0038024006
:102B8400084B094A1B6810B5A2FB032304469809A5
:102B940001F016FE214600224FF0FF3001F0ACFD9B
:102BA400002010BD04000020D34D621008B50B4B6B
:102BB4001A6842F400721A601A6842F480621A6059
:102BC4001A6842F480721A60032001F083FD022027
:102BD400FFF7D6FFFDF7B4FF002008BD003C02401C
:102BE400024A136801331360704700BF1894002031
:102BF400014B1868704700BF1894002010B582B0CC
:102C04000190FFF7F5FF0446FFF7F2FF019B001B5D
:102C14009842F9D302B010BD024A136823F00203AC
:102C24001360704710E000E0024A136843F00203A7
:102C34001360704710E000E04FF08370704700BFEE
:102C4400014B1868000C7047002004E0024B186820
:102C5400C0F30B00704700BF002004E0024A536831
:102C640043F0010353607047002004E0024A5368B4
:102C740023F0010353607047002004E0024A5368C4
:102C840043F0020353607047002004E0024A536893
:102C940023F0020353607047002004E0024A5368A3
:102CA40043F0040353607047002004E0024A536871
:102CB40023F0040353607047002004E0012191FADB
:102CC400A1F2034BB2FA82F213449B0019607047DD
:102CD40000C18910012292FAA2F2044BB2FA82F2E4
:102CE40013449B0000221A60704700BF00C1891082
:102CF400704700BFF0B50368DD0783B004462FD5E5
:102D0400A5498A6802F00C02042A00F0F6808A6859
:102D140002F00C02082A00F0EC806368B3F5803FEF
:102D240000F02F81B3F5A02F00F003819A4D2A689B
:102D340022F480322A602A6822F480222A60002B3E
:102D440040F00081FFF754FF064605E0FFF750FF0F
:102D5400801B642800F2AC802B689B03F6D42368A4
:102D64009F072FD58C4A916811F00C0F00F0A780B3
:102D7400916801F00C01082900F09D80E368002BA4
:102D840000F0EE80854B844D01221A60FFF730FF7E
:102D9400064605E0FFF72CFF801B022800F288801E
:102DA4002B687D4A9807F5D51168F82393FAA3F3A5
:102DB4002069B3FA83F321F0F80100FA03F30B431B
:102DC400136023681A0720D4590734D4A269CAB1FE
:102DD400714B996801F00C01082977D0022A704AD6
:102DE4004FF00001116000F0D2801C46FFF700FF95
:102DF400054604E0FFF7FCFE401B022858D8236870
:102E04009B01F7D4002003B0F0BD6369002B60D0B0
:102E1400644B614D01221A60FFF7EAFE064604E0A6
:102E2400FFF7E6FE801B022842D86B6F9F07F7D599
:102E340023685907CAD5584B5B4D002201921A6C7E
:102E440042F080521A641B6C03F080530193019B7F
:102E54002B6843F480732B60FFF7CAFE064604E038
:102E6400FFF7C6FE801B022822D82B68DA05F7D5A7
:102E7400A368012B00F0F680052B00F0DA80464DA4
:102E84002A6F22F001022A672A6F22F004022A67BD
:102E9400002B40F0D780FFF7ABFE41F2883607469F
:102EA4002B6F980792D5FFF7A3FEC01BB042F7D94A
:102EB400032003B0F0BD526856023FF55FAF364AB7
:102EC4001268950723D5E268012A20D0012003B0B7
:102ED400F0BD344A304D1360FFF78AFE064604E025
:102EE400FFF786FE801B0228E2D86B6F9807F7D4A1
:102EF4009EE74A6850027FF510AF274A1268910393
:102F04007FF52EAF6268002A7FF42AAFDEE7224DF8
:102F1400F822296892FAA2F22069B2FA82F221F028
:102F2400F80100FA02F20A432A601A077FF54CAF4F
:102F34006BE7194B1A6842F480221A601A6842F44B
:102F440080321A60FFF754FE134D064604E0FFF783
:102F54004FFE801B6428ABD82B689A03F7D5FEE696
:102F64000E4A0D4D1360FFF743FE064604E0FFF7DB
:102F74003FFE801B02289BD82B689907F7D423684F
:102F840020E7054A136843F480331360DAE71D46EB
:102F9400FFF72EFE06460FE00038024000004742CD
:102FA40060004742800E474200700040FFF720FE59
:102FB400801B02283FF67CAF2B682D4A9901F5D47B
:102FC40047F6C07696FAA6F64FF44033B6FA86F77B
:102FD40093FAA3F34FF07065B3FA83F395FAA5F56A
:102FE400A16A666AD4F81CC0D4F820E0E06A4908F3
:102FF400BE4001394CEA0E07B5FA85F401FA03F331
:1030040047EA060500FA04F12B431A480B43012151
:10301400536001601446FFF7EBFD054605E0FFF73A
:10302400E7FD401B02283FF643AF23689A01F6D51B
:10303400E8E60F4B1A6F42F004021A671A6F42F067
:1030440001021A67FFF7D4FD094D074641F288369D
:103054002B6F9B073FF5BAAEFFF7CAFDC01BB0420A
:10306400F6D925E7024A136F43F001031367E9E732
:103074000038024060004742F0B50D4689B016465C
:1030840010B3234C234800230293226B42F0040222
:103094002263216B059301F0040102914FF4007E39
:1030A400032202990793022703A90692CDF80CE0A4
:1030B400049701F045F9A36845EAC60223F0784372
:1030C4001A43A26009B0F0BD114C0190226B42F08A
:1030D40001022263226B02F00102019203464FF4C3
:1030E400807E032201990C480593022703A90793C4
:1030F4000692CDF80CE0049701F022F9A36823F0BE
:10310400EC6343EA06021543A56009B0F0BD00BFB5
:10311400003802400008024000000240014B012236
:103124001A6070474C004742014B00221A607047F6
:103134004C0047421B4A936803F00C03042B2ED027
:10314400082B2AD15368516803F03F0311F4800F10
:1031540047F6C070516890FAA0F047F6C07202EAD0
:103164000102B0FA80F022FA00F014BF0E4A0F4AAE
:10317400B2FBF3F30B4A03FB00F352684FF4403005
:1031840090FAA0F002F44032B0FA80F022FA00F093
:1031940001304000B3FBF0F0704704487047024828
:1031A400704700BF0038024000127A000024F40087
:1031B400564A136803F00F038B422DE9F04109D2FC
:1031C400CBB21370136803F00F03994202D00120AD
:1031D400BDE8F08103689A0706D54D4D8268AC6856
:1031E40024F0F0042243AA60DF0706460C4626D5E5
:1031F4004368012B00F084809A1E012A444A126815
:1032040078D99107E3D5424DAA6822F0030213430B
:10321400AB60FFF7EDFC7368012B074641F2883879
:103224004CD0022B55D0032B05D15DE0FFF7E0FC19
:10323400C01B404561D8AB6813F00C0FF6D1334A7C
:10324400136803F00F039C4206D2E3B213701368B1
:1032540003F00F039C42BAD133685A0706D52C48B1
:10326400F268816821F4E0510A4382601B0707D5A4
:10327400274A3169936823F4604343EAC1039360A6
:1032840000F0F4FF224B0146F0229B6892FAA2F26E
:10329400B2FA82F203F0F003D3401E481E4AC35C24
:1032A400022021FA03F31360FFF76AFC0020BDE853
:1032B400F081FFF79DFCC01B40451ED8AB6803F0AE
:1032C4000C03042BF5D1BAE7FFF792FCC01B404571
:1032D40013D8AB6803F00C03082BF5D1AFE7FFF765
:1032E40087FCC01B404508D8AB6803F00C030C2BCB
:1032F400F5D1A4E7900186D469E70320BDE8F08105
:10330400034A126895033FF57EAF60E7003C024034
:10331400003802400CEB000804000020014B186840
:10332400704700BF04000020084B4FF4E0529B6834
:1033340092FAA2F2B2FA82F203F4E053D3400449BF
:10334400044ACB5C1068D840704700BF0038024084
:103354000CEB000804000020084B4FF460429B680B
:1033640092FAA2F2B2FA82F203F46043D34004491F
:10337400044ACB5C1068D840704700BF0038024054
:103384000CEB0008040000200F22344B02601A6882
:10339400520310B453D54FF4A02343602F490B6854
:1033A40003F00103C3600B68F82292FAA2F2B2FAA6
:1033B40082F203F0F803D34003610B6F5B0746D539
:1033C4000523836025494B6F03F0010343610B68B8
:1033D40013F0807F14BF0223012383614B6803F43D
:1033E4008003C3614B6803F03F0303624C6847F6F4
:1033F400C07292FAA2F247F6C073B2FA82F2234084
:10340400D34043624A684FF4403393FAA3F302F47F
:10341400403202F580325200B3FA83F322FA03F306
:1034240083624B684FF0706292FAA2F2B2FA82F2AF
:1034340003F07063D340C3625DF8044B70471B68AC
:1034440013F4803318BF4FF480334360A6E70B6F47
:1034540013F0010318BF01238360B3E7003802406F
:103464000E4B0F2202609A6802F0030242609A68CF
:1034740002F0F00282609A6802F4E052C2609B6833
:10348400DB0810B403F4E053054C036123685DF8D2
:10349400044B03F00F030B60704700BF0038024079
:1034A400003C0240704700BF08B5054BDB681B06B3
:1034B40004D5FFF7F7FF034B80221A7008BD00BF45
:1034C400003802400E380240134B14481A68002199
:1034D40042F0810230B41A6099601A68104C114DA0
:1034E40022F0A16222F480321A6059605A681043B3
:1034F4005860C3F88410D3F8842042F0005242F498
:103504004052C3F884201A6822F480221A60D960D9
:10351400256030BC704700BF003802401030000402
:10352400040000200024F4002DE9F04F036813F098
:10353400010685B004460BD0B049866BD1F88C20C7
:1035440022F0C0623243B6FA86F6C1F88C207609BE
:103554009A070BD5A949E06BD1F88C2022F0C05210
:1035640002430028C1F88C2008BF012613F004058B
:1035740012D0A249256BD1F88C20B5F5801F22F416
:10358400401242EA050218BFB5FA85F5C1F88C204D
:1035940012BF6D09002501261F070FD59748616BDF
:1035A400D0F88C2022F440020A43B1F5800FC0F811
:1035B4008C2000F05E81002908BF0125980600F1E7
:1035C40008812368DF0604D58D4B94F858201A60CF
:1035D4002368180608D58948E26CD0F8941021F4C1
:1035E40040010A43C0F89420590608D58348A26CC8
:1035F400D0F8941021F080610A43C0F89420DA05D1
:103604000CD57E49606DD1F8942022F0006202430B
:10361400B0F1006FC1F8942008BF01259F0508D5BB
:103624007648626CD0F8941021F080510A43C0F8B7
:10363400942058050BD4012E15D0B3F5006F12D089
:10364400012D00F01881002005B0BDE8F08F6B4813
:10365400216DD0F8942022F000520A43B1F1005FAA
:10366400C0F89420E7D1674B644E00221A60FFF73C
:10367400BFFA074605E0FFF7BBFAC01B022800F2B9
:10368400A48033681901F6D42168CA0740F15A812D
:10369400A36B002B40F05681DFF860E14FF4403C0F
:1036A400DEF884609CFAACF24FF07063B2FA82FAEE
:1036B400DEF8847093FAA3F847F6C079B8FA88F86C
:1036C40099FAA9F9B9FA89F99CFAACFCBCFA8CFC10
:1036D40093FAA3F34FF0E040B3FA83F390FAA0F027
:1036E40006F44032A66801966669B0FA80F006FADC
:1036F40000F0019E22FA0AF206FA09F9013266681C
:1037040007F0706722F0004227FA08F749EA000040
:103714009F40013A40EA060302FA0CF23B4313438A
:10372400CEF884304F0704D5236BB3F5801F00F027
:1037340027810E0704D5636BB3F5800F00F0208159
:10374400480504D5236DB3F1005F00F070810A05CC
:103754002BD547F6C07696FAA6F64FF4403CB6FA57
:1037640086FE9CFAACF34FF07061B3FA83FC91FAD5
:10377400A1F14FF0E040B1FA81F790FAA0F0E368CC
:10378400A668216962695B08013B06FA0EF603FA32
:103794000CF333436668B0FA80F03343B9401943FD
:1037A4008240164B0A43C3F88420164B134E012261
:1037B4001A60FFF71DFA074633681B013FF540AF57
:1037C400FFF716FAC01B0228F6D9032005B0BDE89E
:1037D400F08F0A4B0C4F002203921A6C42F0805275
:1037E4001A641B6C03F080530393039B3B6843F4FC
:1037F40080733B60FFF7FCF980460DE0003802401F
:10380400E01147426800474200700040FFF7F0F9BA
:10381400C8EB00000228D8D83B68D905F6D5BC49C6
:103824000B6F13F44072236C03F4407011D0824286
:103834000FD00B6FB74A23F44073012700201760A1
:1038440010600B670B6FDA0700F18880236C03F4B8
:103854004070B0F5407F00F0DF80AD498A6822F403
:10386400F8128A60AA490A6FC3F30B0313430B6768
:10387400A7E60126A2E6A84BA54D00221A60FFF791
:10388400B7F9064604E0FFF7B3F9801B02289CD879
:103894002B689F00F7D421684D075BD4080738D5FF
:1038A400636BB3BB9A4E4FF44030D6F8882090FA3D
:1038B400A0F347F6C077B3FA83F397FAA7F7B7FAFA
:1038C40087F790FAA0F04FF0706EB0FA80F09EFA8D
:1038D400AEFE02F44032E56922FA03F3626A013370
:1038E400BEFA8EFEBD4023F00043A76902FA0EF231
:1038F4002A43013B174383403B43C6F88830D6F83C
:103904008C30E26A23F4F853013A43EA0223C6F8FE
:103914008C30CA0504D5636DB3F1006F00F0CC8020
:103924007D4B7B4C01221A60FFF762F9054605E0E6
:10393400FFF75EF9401B02283FF647AF23689B0060
:10394400F6D580E68B077FF5EDAEE36B002B7FF4B5
:10395400E9AEA1E6236B002BA4D09FE70F46FFF747
:1039640047F941F28838814606E0FFF741F9C9EB8F
:10397400000040453FF629AF3B6F9B07F5D565E74F
:10398400634E4FF44033D6F8842093FAA3FB4FF0F0
:10399400E048BBFA8BFBD6F884E098FAA8F947F61E
:1039A400C077B9FA89F997FAA7F7B7FA87FA93FAB9
:1039B400A3F34FF07060B3FA83FC90FAA0F3B3FA68
:1039C40083F398FAA8F82069A76802F4403222FA2F
:1039D4000BF200FA03F3013260680EF0E04E07FACE
:1039E4000AF722F000421F432EFA09FEB8FA88F8BB
:1039F400531E38430EFA08F2024303FA0CF313433E
:103A0400C6F88430D6F88C30A26A23F01F03013A3A
:103A14001343C6F88C3093E63D48816823F0704226
:103A240021F4F81122F440720A4382601AE7DFF8A5
:103A3400E0804FF44033D8F8842093FAA3FB4FF08E
:103A4400E04EBBFA8BFBD8F884009EFAAEFA47F638
:103A5400C076BAFA8AFA96FAA6F6B6FA86F693FA0F
:103A6400A3F34FF07069B3FA83FC99FAA9F3B3FA9C
:103A740083F99EFAAEFEE768A3687F0802F4403239
:103A8400013F22FA0BFB03FA06F6626800F0E040FD
:103A940007FA0CF70BF1010320FA0AF0BEFA8EFEC6
:103AA40037435B0000FA0EF03A4303FA09F302438A
:103AB4001343C8F884304AE6154D4FF07061D5F8C9
:103AC400883091FAA1F747F6C070B7FA87F790FAF1
:103AD400A0F04FF44032B0FA80F692FAA2F2B2FAB1
:103AE40082FE91FAA1F1226AE069A4695208013ABE
:103AF40003F0706302FA0EF2B040FB40B1FA81F1B8
:103B040002438B4022431343C5F8883008E700BFC3
:103B140000380240400E47427000474240F2FF72B4
:103B24005D4B0260F0B4D3F884203F2696FAA6F1E8
:103B3400B1FA81F13240CA404260D3F8842047F69A
:103B4400C07595FAA5F1B1FA81F12A40CA408260A4
:103B5400D3F884404FF4403292FAA2F1B1FA81F7DB
:103B640004EA0201F94001314900C160D3F884102C
:103B74004FF0706494FAA4F7B7FA87F72140F9403C
:103B84000161D3F884104FF0E04797FAA7F7B7FA2A
:103B940087F701F0E041F9404161D3F8881096FAC3
:103BA400A6F601F03F01B6FA86F621FA06F686611A
:103BB400D3F8886095FAA5F1B1FA81F13540CD408A
:103BC400C561D3F8881092FAA2F2B2FA82F501F430
:103BD4004032EA40013252000262D3F8882094FA5B
:103BE400A4F402F07062B4FA84F422FA04F4446295
:103BF400D3F88C201F2191FAA1F1B1FA81F102F0DE
:103C04001F02CA408262D3F88C204FF4F85191FA13
:103C1400A1F1B1FA81F102F4F852CA40C262D3F8B8
:103C24008C2002F440120263D3F88C2002F4400288
:103C34004263D3F88C2002F0C0628263D3F88C20F4
:103C440002F0C052C26399681A6F01F4F81102F4C9
:103C540040720A430264D3F8942002F080628264C2
:103C6400D3F8942002F44002C264D3F8942002F002
:103C740000624265D3F8942002F080524264D3F883
:103C8400942002F000520265D3F88C30C3F3006331
:103C940080F85830F0BC704700380240042803D044
:103CA400082801D000207047394AD2F88C3003F438
:103CB4007003B3F5401F4AD028D8B3F5801F2ED027
:103CC400B3F5001F45D0002BECD1536813F4800FDB
:103CD400D2F888300CBF2F492F4903F03F03B1FBC2
:103CE400F3F22B49D1F88800D1F88830D1F88C1040
:103CF400C3F38813C1F30421C0F3036002FB03F38D
:103D04004A1CB3FBF0F3B3FBF2F07047B3F5000FBA
:103D14001FD0B3F5400F33D0B3F5800FC2D11C4B85
:103D24005A68D3F88430510254BF1A491A4903F02F
:103D34003F03B1FBF3F21649D1F88400D1F8843083
:103D4400D1F88C10C3F3881301F01F01D4E7134892
:103D540070470F4B5A685B68520254BF0D490E49B5
:103D640003F03F03B1FBF3F2094B58685B68C3F3FC
:103D7400881302FB03F3C0F30270B3FBF0F0704747
:103D84005268044B044812F4800F08BF1846704769
:103D9400003802400024F40000127A000080BB00C6
:103DA4002DE9F0410368DA0782B0044636D5AA4902
:103DB4008A6802F00C02042A00F0A5808A6802F0E6
:103DC4000C02082A00F09B80A3498A6802F00C02C6
:103DD4000C2A00F026816368B3F5803F00F00A8165
:103DE400B3F5A02F00F08B819B4D2A6822F480321A
:103DF4002A602A6822F480222A60002B40F0FF8087
:103E0400FEF7F6FE064605E0FEF7F2FE801B642888
:103E140000F203812B689903F6D423689A0734D5FA
:103E24008D4A916811F00C0F78D0916801F00C0163
:103E3400082970D088498A6802F00C020C2A00F024
:103E44008281E368002B00F0F180844B824D0122D3
:103E54001A60FEF7CDFE064605E0FEF7C9FE801B9C
:103E6400022800F2DA802B687B4A9807F5D511689E
:103E7400F82393FAA3F32069B3FA83F321F0F8014A
:103E840000FA03F30B43136023681A0714D563691C
:103E9400002B4ED0724B704D01221A60FEF7A8FE23
:103EA400064605E0FEF7A4FE801B022800F2B5805A
:103EB4006B6F9F07F6D5236859074AD4A269D2B11C
:103EC400654B996801F00C0108292ED0022A654A35
:103ED4004FF00001116000F0BA801C46FEF788FE26
:103EE400054605E0FEF784FE401B022800F295809B
:103EF40023689B01F6D4002002B0BDE8F0814A6833
:103F040057027FF561AF544A1268950386D56268FB
:103F1400002A83D109E0526857028BD44E4A1268B2
:103F2400950755D5E268012A52D0012002B0BDE8B8
:103F3400F0814B4A484D1360FEF75AFE064604E0F2
:103F4400FEF756FE801B022867D86B6F9807F7D4DC
:103F5400B1E7414B444D002201921A6C42F0805269
:103F64001A641B6C03F080530193019B2B6843F488
:103F740080732B60FEF73CFE064604E0FEF738FE35
:103F8400801B022849D82B68DA05F7D5A368012BD2
:103F940000F0DE80052B00F0BC802F4D2A6F22F04C
:103FA40001022A672A6F22F004022A67002B40F0DC
:103FB400B980FEF71DFE41F28836074604E0FEF79D
:103FC40017FEC01BB04228D82B6F9807F7D475E7AB
:103FD400214DF822296892FAA2F22069B2FA82F2FB
:103FE40021F0F80100FA02F20A432A601A077FF569
:103FF40063AF4CE7184A136843F480331360FEF749
:10400400F7FD154D064604E0FEF7F2FD801B64281B
:1040140003D82B689803F7D5FFE6032002B0BDE868
:10402400F0814A6856027FF5D6AE6CE70B4A0A4D1A
:104034001360FEF7DDFD064604E0FEF7D9FD801BA4
:104044000228EAD82B689907F7D423681DE71D4690
:10405400FEF7CEFD06460EE000380240000047425F
:10406400800E47426000474200700040FEF7C0FDEA
:10407400801B0228D1D82B68384A9901F6D447F618
:10408400C07393FAA3F34FF4403CB3FA83F89CFA59
:10409400ACF34FF0706EB3FA83FC9EFAAEFE4FF0B1
:1040A400E046BEFA8EFE96FAA6F6A36A606A256A10
:1040B400E76959082F4300FA08F3E56A206B0139D0
:1040C40047EA030401FA0CF32343B6FA86F105FA2E
:1040D4000EF400FA01F1234321480B4301215360FC
:1040E40001601446FEF784FD054604E0FEF780FDFA
:1040F400401B022891D823689A01F7D5FBE6174B99
:104104001A6842F480221A601A6842F480321A60F3
:1041140075E7124B1A6F42F004021A671A6F42F0E5
:1041240001021A67FEF764FD0C4D074641F288361A
:1041340005E0FEF75DFDC01BB0423FF66EAF2B6F8E
:104144009B07F6D5BAE64A6856023FF57AAEE5E62D
:10415400024A136F43F001031367E3E70038024098
:10416400600047420F223A4B02601A68520310B4AF
:104174005ED54FF4A023436035490B6803F0010377
:10418400C3600B68F82292FAA2F2B2FA82F203F048
:10419400F803D34003610B6F5B0751D5052383609C
:1041A4002B494B6F03F0010343610B6813F0807FCD
:1041B40014BF0223012383614B6803F48003C361AA
:1041C4004B6803F03F0303624C6847F6C07292FAEF
:1041D400A2F247F6C073B2FA82F22340D34043629C
:1041E4004A684FF4403393FAA3F302F4403202F5E1
:1041F40080325200B3FA83F322FA03F383624B68EA
:104204004FF0706292FAA2F2B2FA82F203F0706393
:10421400D340C3624B684FF0E04292FAA2F2B2FA82
:1042240082F203F0E043D34003635DF8044B70472C
:104234001B6813F4803318BF4FF4803343609BE74B
:104244000B6F13F0010318BF01238360A8E700BFBD
:1042540000380240044A136F01280CBF43F00803DE
:1042640023F008031367704700380240314A90680E
:1042740000F00C00082808D00C2831D02E4B2F4A0F
:1042840004280CBF1846104670475368516803F061
:104294003F0311F4800F47F6C070516890FAA0F004
:1042A40047F6C07202EA0102B0FA80F022FA00F086
:1042B40014BF214A214AB2FBF3F31E4A03FB00F365
:1042C40052684FF4403090FAA0F002F44032B0FA51
:1042D40080F022FA00F001304000B3FBF0F07047A8
:1042E4005368516803F03F0311F4800F47F6C07020
:1042F400516890FAA0F047F6C07202EA0102B0FADF
:1043040080F022FA00F014BF0B4A0C4AB2FBF3F31C
:10431400084A03FB00F352684FF0E04090FAA0F023
:1043240002F0E042B0FA80F022FA00F0B3FBF0F0C1
:10433400704700BF0038024000127A000024F400E5
:104344002DE9F04FDFF8D8C1D1F800E0DFF8D481CF
:104354006D4F83B0002603E00136102E00F08B80F1
:104364000123B34033EA0E02F6D1D1F8049029F0C8
:104374001004022C00F082804FEA460A03220568EA
:1043840002FA0AF2D24309F0030B15400BFA0AFBB6
:10439400013C4BEA0505012C056040F29180C5689B
:1043A4008C682A4004FA0AF4224319F0805FC26040
:1043B400D2D000220192DCF8444044F48044CCF88A
:1043C4004440DCF8444026F0030505F1804504F43C
:1043D400804405F59C35019406F0030B019CD5F847
:1043E40008A04FEA8B0B0F2404FA0BF440452AEA89
:1043F400040A1AD002F1804202F5013290426FD0D1
:10440400424A904270D0424A904271D0414A90420E
:1044140072D0414A904273D0404A90420BBF062268
:10442400072402FA0BF204FA0BF24AEA0202AA6027
:104434003A68DC4319F4803F14BF1A4322403A60BF
:104444007A6819F4003F14BF1A4322407A60BA68AC
:1044540019F4801F14BF1A432240BA60FA6819F491
:10446400001F06F101060CBF04EA02031343102ED9
:10447400FB607FF475AF03B0BDE8F08F4FEAD60A56
:1044840000EB8A0A06F00704DAF820500A69A4004F
:104494004FF00F0B0BFA04FB25EA0B05A2402A434D
:1044A400CAF820204FEA460A0322046802FA0AF2F4
:1044B400D24309F00305144005FA0AF52C430460BD
:1044C4008468CD68144005FA0AF52543856044687C
:1044D400C9F3001524EA0304B5402C4344605EE7A5
:1044E400012202FA0BF2A0E7022202FA0BF29CE785
:1044F400032202FA0BF298E7042202FA0BF294E781
:10450400052202FA0BF290E7003C01400008024049
:10451400000C024000100240001402400018024047
:1045240000380240000002402DE9F04F0023DFF87C
:104534003491DFF83481DFF834A14FF0010B02E04D
:104544000133102B68D00BFA03F232EA0104F7D1DD
:104554004FF0030C5D0004680CFA05F5ED4323FAF3
:104564000CF72C4000EB8707046003F007063C6A55
:104574004FF00F0EB6000EFA06F624EA06063E6267
:1045840084682C4084604468D24314404460C46806
:1045940023F0030606F18046254006F59C36C560E7
:1045A40003EA0C04B568A4000EFA04FE484505EAC3
:1045B4000E0533D0504538D0254FB84238D0254F5A
:1045C400B8422FD0244FB84237D0244FB84239D004
:1045D400234FB84224D04FF0070C0CFA04F4A54240
:1045E400AED1B46824EA0E04B460D8F80040144094
:1045F400C8F80040D8F804401440C8F80440D8F87B
:1046040008401440C8F80840D8F80C400133224050
:10461400102BC8F80C2096D1BDE8F08F0024DEE7FB
:104624004FF0060C0CFA04F4D9E70BFA04F4D6E7BD
:104634004FF0020C0CFA04F4D1E74FF0040C0CFA1E
:1046440004F4CCE74FF0050C0CFA04F4C7E700BF00
:1046540000080240000C0240001002400014024016
:104664000018024000000240003C014000040240E7
:104674000369194214BF01200020704702B90904DC
:1046840081617047436959404161704782B04FF47A
:1046940080330193019B0B430193019BC361C1616F
:1046A400019BC361C3690193C06980F48030C0F386
:1046B400004002B0704700BF704700BF044A516910
:1046C400014200D1704708B55061FBF7FBFE08BDFD
:1046D400003C0140074AD1684FF6FF030B4000023B
:1046E40043F0BF6300F4E06043F400330343D3605A
:1046F400704700BF00ED00E0194BDB68C3F30223F1
:1047040030B4C3F10705042D03F1040428BF0425C4
:10471400062C18D9033B01249C40013C224001246F
:10472400AC40013C214001FA03F3002842EA0302B1
:104734000CDB00F1604000F561401201D2B280F858
:10474400002330BC704700221346E8E7054B00F015
:104754000F0012010344D2B21A7630BC704700BF76
:1047640000ED00E0FCEC00E000F01F010123400933
:10477400024A8B4042F82030704700BF00E100E05D
:104784004309203300F01F000122034902FA00F01C
:1047940041F82300704700BF00E100E0BFF34F8FF2
:1047A4000549064BCA6802F4E0621343CB60BFF3C9
:1047B4004F8F00BFFDE700BF00ED00E00400FA05E5
:1047C4000138B0F1807F0ED2084B10B4084C586009
:1047D400F02084F823000022072110469A60196013
:1047E4005DF8044B70470120704700BF10E000E003
:1047F40000ED00E0F0B4134E4378B36003781BB9C6
:10480400F3603361F0BC70474368F360C47A037BA0
:104814000578817A427B877B240644EA03742C431F
:1048240044EAC141C37B447A007A41EA824141EAC5
:10483400474242EA034242EA042343EA4003336123
:10484400F0BC704790ED00E0024BD868C0F3022042
:10485400704700BF00ED00E0002870B422DB00F1D7
:10486400604000F5614090F80003000901F0070181
:10487400C1F10706042E01F1040428BF0426062C06
:104884000DD9033901248C40013C04400125B54075
:10489400C840691E084010601C6070BC704700244A
:1048A4002146F3E7034C00F00F000444207E000986
:1048B400DCE700BFFCEC00E04309403300F01F00DC
:1048C4000122034902FA00F041F82300704700BFB7
:1048D40000E100E04309054A403300F01F0052F8AC
:1048E400233023FA00F000F00100704700E100E0FB
:1048F4004309603300F01F000122034902FA00F06B
:1049040041F82300704700BF00E100E04309054A75
:10491400803300F01F0052F8233023FA00F000F037
:104924000100704700E100E0044A136804280CBF4A
:1049340043F0040323F004031360704710E000E025
:10494400704700BF08B5FFF7FBFF08BD2DE9F0472E
:10495400066837690546C068EC69D5F808E02A6935
:10496400696927F4405738433061F368A8694EEA0F
:10497400020223F416430A4323F00C032243134395
:10498400F360736923F440730343B4F5004F736118
:10499400A34B5DD09E4200F0F68003F580639E42F7
:1049A40000F0F180FEF7C0FC6F68DFF8788200EB5E
:1049B400800000EB8000BF00B0FBF7F7FEF7B4FC0B
:1049C4006C6800EB800000EB8000A400B0FBF4F402
:1049D400FEF7AAFCA8FB07376B6800EB80009B007E
:1049E40000EB8000B0FBF3F0A8FB003040094FF06F
:1049F400640A0AFB1044FEF797FC696800EB800028
:104A04008A0000EB8000B0FBF2F9FEF78DFC240174
:104A14006A68323400EB80009200A8FB043400EB97
:104A24008000B0FBF2F0A8FB00307F096409400964
:104A34003F0104F0F0040AFB109212013232A8FB89
:104A44000223C3F343131C442744B760BDE8F08733
:104A54009E4259D003F580639E4255D0FEF764FC14
:104A64006F68DFF8C08100EB800000EB80007F00FE
:104A7400B0FBF7F7FEF758FC6C6800EB800000EB26
:104A840080006400B0FBF4F4FEF74EFC6A6800EBAF
:104A94008000A8FB073700EB80005300B0FBF3F362
:104AA400A8FB03235B094FF0640A0AFB1344E400E8
:104AB400FEF73AFC3234A8FB04346B687F092409FE
:104AC40000EB800000EB80005A003F0104F4F8740E
:104AD400B0FBF2F9FEF728FC696800EB800000EBFC
:104AE40080004900B0FBF1F1A8FB013149090AFB40
:104AF4001192D2003232A8FB0223C3F342133B4487
:104B04001C44B460BDE8F087FEF726FC6F68DFF84C
:104B1400148100EB800000EB80007F00B0FBF7F70E
:104B2400FEF71AFC6C6800EB800000EB8000640068
:104B3400B0FBF4F4FEF710FC6A6800EB8000A8FBFD
:104B4400073700EB80005300B0FBF3F3A8FB03230B
:104B54005B094FF0640A0AFB1344E400FEF7FCFB14
:104B64003234A8FB04346B687F09240900EB80000D
:104B74005A003F0104F4F87400EB8000B0FBF2F932
:104B8400FEF7EAFBA8E7FEF7E7FB6F68DFF894801F
:104B940000EB800000EB8000BF00B0FBF7F7FEF7EE
:104BA400DBFB6C6800EB800000EB8000A400B0FB32
:104BB400F4F4FEF7D1FB6A6800EB8000A8FB07372A
:104BC40000EB80009300B0FBF3F3A8FB03235B0925
:104BD4004FF0640A0AFB13442401FEF7BDFB323490
:104BE400A8FB04346B6800EB80009A0000EB8000A3
:104BF400B0FBF2F9FEF7B0FB696800EB800000EB54
:104C040080008900B0FBF1F1A8FB01317F09640940
:104C140049093F0104F0F0040AFB11920DE700BFBB
:104C2400001001401F85EB51704700BF60B338B5D9
:104C340090F83930044603F0FF0203B322682423BA
:104C440084F83930D36823F40053D3602046FFF747
:104C54007DFE23681A6922F490421A615A6922F08F
:104C64002A025A61DA680025202142F40052DA60EF
:104C74002846E56384F8391084F83A1038BD80F882
:104C84003820FFF7D1FFD9E70120704780B338B54A
:104C940090F83930044603F0FF0223B3226824233A
:104CA40084F83930D36823F40053D3602046FFF7E7
:104CB4004DFE23681A6922F490421A615A6922F05F
:104CC40022025A615A6942F008025A61DA680025E0
:104CD400202142F40052DA602846E56384F8391052
:104CE40084F83A1038BD80F83820FFF79DFFD5E7E7
:104CF40001207047002838D038B590F83930044680
:104D04000D4603F0FF025BB32268242384F8393094
:104D1400D36823F40053D3602046FFF717FE2368BB
:104D24001A6922F400621A615A6922F02A025A614D
:104D34001A6942F480421A611A6922F020021A6147
:104D440019690D431D61DA680025202142F40052DF
:104D5400DA602846E56384F8391084F83A1038BDDF
:104D640080F83820FFF760FFCEE70120704700BFCE
:104D740000283DD090F8393070B5154604460E46EB
:104D840003F0FF02002B2ED02268242384F839304C
:104D9400D36823F40053D3602046FFF7D7FD23687C
:104DA4001A6922F490421A615A6922F02A025A615D
:104DB4001A6922F00F021A6119690E431E61DA683A
:104DC40022F40062DA60DA681543DD60DA680025EF
:104DD400202142F40052DA602846E56384F8391051
:104DE40084F83A1070BD80F83820FFF71DFFCBE738
:104DF40001207047704700BF80B110B524230446DA
:104E040080F83930FBF7C6FF0023E36384F83830B9
:104E140084F83930184684F83A3010BD01207047C0
:104E2400F0B50E4690F83910202983B002D0022044
:104E340003B0F0BD002E2ED0002A2CD01F4690F8CF
:104E44003830012B0446F2D0002001212123E063F5
:104E540084F8381084F839300192FDF7C9FE019ABC
:104E6400A28405462068E284E38C9BB2002B3BD0ED
:104E7400E28CA368013A92B2B3F5805FE28418D061
:104E84007A1C3FD1026802F08002002AFAD03378FB
:104E940043600136E8E70120CAE7036803F08003B2
:104EA40073B9002F3AD0FDF7A3FE401B8742206858
:104EB40034D3791CF1D1026802F08002002AFAD0BE
:104EC40033882269C3F308034360002AE1D1023620
:104ED400CAE7036803F040036BB9FFB1FDF788FE2E
:104EE400401B8742206819D37B1CF2D1036803F06E
:104EF4004003002BFAD02023002084F8393084F8B2
:104F0400380095E7036803F08003002BBFD12FB16D
:104F1400FDF76EFE401B87422068B1D2C36823F4BC
:104F2400D073C3604369202223F00103002143614D
:104F340084F83920032084F8381084F83A2077E77D
:104F4400F0B50E4690F83A10202983B002D0022022
:104F540003B0F0BD002E31D0002A2FD01F4690F8A8
:104F64003830012B0446F2D0002001212223E063D3
:104F740084F8381084F83A300192FDF739FE019A2A
:104F8400A2850546E285E08D80B2002870D0E38DCD
:104F9400A268013B9BB2B2F5805FE38510D07B1C15
:104FA40020681ED1026802F02002002AFAD0236988
:104FB400002B34D1436833700136E4E70120C7E79E
:104FC4007A1C236831D11A6802F02002002AFAD030
:104FD4002269002A47D15B68C3F3080326F8023B21
:104FE400D1E7036803F02003002BE0D12FB1FDF7D4
:104FF400FFFD401B8742D2D22068C36823F4D073DC
:10500400C3604369202223F001030021436184F833
:105014003920032084F8381084F83A2098E743684C
:1050240003F07F0333700136ADE71A6802F0200203
:10503400002ACDD12FB1FDF7DBFD401B8742BFD243
:105044002368DA6822F4D072DA605A69202122F0E7
:10505400010200255A61032084F8391084F838507D
:1050640084F83A1074E75B68DBB226F8013B8AE700
:10507400202384F8380084F83A3069E790F839300E
:10508400202B01D002207047B9B1B2B190F838306A
:10509400012BF7D030B400230568C2842124C363F4
:1050A40080F83940EC68016244F08001828480F821
:1050B40038301846E96030BC70470120704700BFA3
:1050C40090F83A30202B01D002207047D9B1D2B1E8
:1050D40090F83830012BF7D030B400230468C2852F
:1050E4002225C36380F83A506569816245F0010165
:1050F400828580F838306161E26842F49072184623
:10510400E26030BC70470120704700BFF8B590F8EA
:105114003940202C01D00220F8BD59B352B390F885
:105124003840012CF7D004460126006B84F838601F
:10513400134600252268E3842126E563DFF840E076
:1051440084F839600C4F0D4EA38421620432056546
:10515400C0F83CE00764C66400F0C0FD23686FF04B
:1051640040021A605A6984F8385042F08002284696
:105174005A61F8BD0120F8BD65540008C154000807
:1051840035540008F8B590F83A40202C01D002209C
:10519400F8BD00292FD0002A2DD090F83830012BEB
:1051A400F5D004460127406B144E84F8387000256E
:1051B400134622270A462168A262A385E56384F880
:1051C4003A700F4FC6630F4E05650764C664043119
:1051D40000F084FD2368DA6842F48072DA605A6968
:1051E40042F001025A615A6942F040025A6128466B
:1051F40084F83850F8BD0120F8BD00BF755400088C
:10520400B1540008C154000890F83830012B15D06F
:10521400036810B45C6990F839200121212A80F8D0
:1052240038101CD0596990F83A20222A08D000235B
:1052340080F838305DF8044B1846704702207047F8
:105244004A06F4D5DA6822F48072DA605A6922F0E8
:1052540001025A615A6922F040025A61E7E72106C5
:10526400E0D55A6922F080025A61DBE790F83830C1
:10527400012B0FD090F839300122212B80F83820EF
:1052840025D090F83A30222B06D0002380F838300D
:10529400184670470220704782B0036800220192CA
:1052A4001A6801925A680192019ADA6842F480728B
:1052B400DA605A6942F001025A615A6942F04002C6
:1052C4005A61002380F83830184602B070470268EB
:1052D400536943F08003536190F83A30222BD4D1C0
:1052E400DAE700BF0368596990F83920212A10B51C
:1052F40004461ED0596994F83A20222A01D000208D
:1053040010BD4A06FBD55A69606B22F040025A610F
:1053140010B100F025FD2368DA6822F49072DA6097
:105324005A69202122F001025A61002084F83A10BF
:1053340010BD0906DED55A69006B22F080025A615D
:1053440010B100F00DFD2368DA68202122F0C002BC
:10535400DA6084F83910CDE70368DA6822F4F07271
:1053640010B5DA605A6922F001025A615A691106CD
:1053740004460AD55A69006B22F080025A6120B1B2
:105384000023036500F0ECFC23685A69520609D532
:105394005A69606B22F040025A6118B10023036518
:1053A40000F0DEFC00232022E3841846E385E36357
:1053B40084F83A2084F8392010BD00BF0368DA6805
:1053C40022F0C00210B5DA605A691206044609D503
:1053D4005A69006B22F080025A6118B100230365F8
:1053E40000F0BEFC00202023E08484F8393010BD96
:1053F4000368DA6822F4907210B5DA605A6922F010
:1054040001025A615A695206044609D55A69406B29
:1054140022F040025A6118B10023036500F0A0FC99
:1054240000202023E08584F83A3010BD704700BF87
:1054340008B50368806B1B6813F480730AD1026893
:10544400C384536923F080035361D36843F040035A
:10545400D36008BDFFF7EAFF08BD00BF704700BF77
:1054640008B5806BFFF7FAFF08BD00BF704700BFA7
:1054740008B50368806B1B6813F4807310D102684D
:10548400C385D36823F48073D360536923F0010385
:1054940053615369202123F04003536180F83A108B
:1054A400FCF78EF808BD00BF704700BF08B5806BDD
:1054B400FFF7FAFF08BD00BF704700BF806B08B557
:1054C4000368596990F83920212A1BD0596990F84A
:1054D4003A20222A06D0C36B43F01003C363FFF7BC
:1054E400EBFF08BD4A06F6D50022C285DA6822F42D
:1054F4009072DA605A69202122F001025A6180F820
:105504003A10E8E70906E1D50022C284DA682021CE
:1055140022F0C002DA6080F83910D7E703681A680D
:1055240070B515070446D86859694FD011F00101C8
:1055340078D0D50705D5C60503D5E56B45F001053B
:10554400E563550740F1A080002900F0AB80E16BD2
:1055540041F00201E163910740F19C80E16B160781
:1055640041F00401E16300F19880E16B00292CD043
:10557400950606D5800604D594F83A20222A00F030
:10558400A4805A69E16B090703D412F0400500F0C6
:10559400C080DA6822F49072DA605A69202122F01D
:1055A40001025A6184F83A105A69560640F184801F
:1055B4005A69606B22F040025A6100287CD0754B16
:1055C400036500F015FC00287AD170BD91062CD536
:1055D40086062AD594F83A20222AF6D1A268B2F592
:1055E400805F00F0A3802269002A40F09780A26ABD
:1055F4005B68511CA1621370E38D013B9BB2E38590
:10560400002BE2D12368DA6822F49072DA605A69D6
:10561400202122F001025A61204684F83A10FBF757
:10562400CFFF70BD10F4907F83D115060ED45206BF
:10563400CBD54606C9D5DA68202122F04002DA60CB
:10564400204684F83910FFF7F1FE70BD0106EED54F
:1056540094F83920212AB8D1A268B2F5805F226A71
:1056640073D0511C216212785A60E28C013A92B2D2
:10567400E284002AA9D1DA6822F08002DA60DA68CA
:1056840042F04002DA6070BD95070ED500297FF420
:1056940065AF6AE711077FF568AFE16B41F0080178
:1056A400E16362E795073FF560AF16077FF55DAFED
:1056B40000293FF45AAFF0E72046FFF7FDFE70BD26
:1056C400606BBDE87040036D1847A268B2F5805F57
:1056D4004DD02269002A41D1A26A5B68511CA162A3
:1056E40013702368E28D013A92B2E285002A7FF4B6
:1056F40048AFDA6822F49072DA605A69202122F005
:1057040001025A61204684F83A10FBF759FF2368D6
:1057140037E72046FFF7D0FEE56370BD5B68A26AF9
:1057240003F07F03511CA162137065E72169A26A2B
:105734005B6829B9C3F3080322F8023BA2625BE762
:10574400DBB222F8013BA26256E711882069C1F35B
:1057540008015960A8B90232226286E75B68A26A2E
:1057640003F07F03511CA16213702368BAE7216917
:10577400A26A49B95968C1F3080122F8021BA2625E
:10578400B0E70132226270E75968C9B222F8011BFE
:10579400A262A7E79D57000808B5836B0022DA854B
:1057A4001846DA84FFF788FE08BD00BF704700BFC3
:1057B4000368DA6822F4F07210B50446006BDA600C
:1057C4005A6922F001025A6128B15A6912F0800222
:1057D40018BF214A0265616B29B15A6912F040026F
:1057E40018BF1E4A0A655A6912060BD55A6922F077
:1057F40080025A6130B100F0FBFA00B3226B2368D7
:10580400002111655A6951060BD55A69606B22F063
:1058140040025A6128B100F0EBFA70B1636B0022C8
:105824001A6500232022E3842046E385E36384F899
:10583400392084F83A20FFF7B9FF002010BD23680F
:105844005A695206F9D55A69606B22F040025A61CE
:105854000028E0D1F1E700BF95580008655800081A
:1058640008B5836B596B1A6B0020086512B1126D71
:1058740002B108BD00222021DA841846DA85DA63F1
:1058840083F8391083F83A10FFF790FF08BD00BF82
:1058940008B5836B196B5A6B0020086512B1126D41
:1058A40002B108BD00222021DA841846DA85DA63C1
:1058B40083F8391083F83A10FFF778FF08BD00BF6A
:1058C400704700BF0368DA6822F0C00210B5DA60DE
:1058D4005A6912F0800204460DD05A69016B22F015
:1058E40080025A61A1B10E4B0B65084600F080FAA4
:1058F40048B9002010BD2023C28480F83930FFF756
:10590400DFFF002010BD206B036D9847002010BD01
:105914002023C18480F83930FFF7D2FFE9E700BFC4
:105924002959000808B5836B00212022D984184620
:1059340083F83920FFF7C4FF08BD00BF704700BFDC
:105944000368DA6822F4907210B5DA605A6922F0BA
:1059540001025A615A6912F0400204460DD05A6994
:10596400416B22F040025A61A1B10E4B0B6508460F
:1059740000F03EFA48B9002010BD2023C28580F80B
:105984003A30FFF7DBFF002010BD606B036D9847D2
:10599400002010BD2023C18580F83A30FFF7CEFFE8
:1059A400E9E700BFAD59000808B5836B0021202248
:1059B400D985184683F83A20FFF7C0FF08BD00BF19
:1059C40090F83820012A13D003462422006810B42A
:1059D40083F83920C2682024002142F00102C26009
:1059E400084683F8394083F838105DF8044B704753
:1059F4000220704790F83820012A13D0034624224D
:105A0400006810B483F83920C2682024002142F0D1
:105A14000202C260084683F8394083F838105DF802
:105A2400044B70470220704790F83820012A13D0A5
:105A340003462422006810B483F83920C268202465
:105A4400002122F00202C260084683F8394083F83C
:105A540038105DF8044B70470220704790F83820E6
:105A6400012A15D003462422006810B483F8392093
:105A7400C26822F00C022024002142F00802C26015
:105A8400084683F8394083F838105DF8044B7047B2
:105A94000220704790F83820012A15D003462422AA
:105AA400006810B483F83920C26822F00C02202464
:105AB400002142F00402C260084683F8394083F8AA
:105AC40038105DF8044B70470220704790F8392075
